Network : Goerli
Transaction Hash: 0x4ec4116d2b73ae6fe4caafd1fc18cee50e2309a1117d1605a1de0268f3916aa7

let rawTransaction = {
    from: '0x54f304ec181ddbd5eaed891b3912a7b22fb261e3',
    nonce: '0x1',
    gasPrice: '0x7c6354ebfbcd5'
    gasLimit: '0x34f69',
    value:'0x0',
    to: '0x4648a43b2c14da09fdf82b161150d3f634f40491',
    data:'0x02f902f905018459682f008523d5549ad083034f69944648a43b2c14da09fdf82b161150d3f634f4049187038d7ea4c68000b902843593564c000000000000000000000000000000000000000000000000000000000000006000000000000000000000000000000000000000000000000000000000000000a000000000000000000000000000000000000000000000000000000000641b08fc00000000000000000000000000000000000000000000000000000000000000020b000000000000000000000000000000000000000000000000000000000000000000000000000000000000000000000000000000000000000000000000000002000000000000000000000000000000000000000000000000000000000000004000000000000000000000000000000000000000000000000000000000000000a00000000000000000000000000000000000000000000000000000000000000040000000000000000000000000000000000000000000000000000000000000000200000000000000000000000000000000000000000000000000038d7ea4c680000000000000000000000000000000000000000000000000000000000000000100000000000000000000000000000000000000000000000000000000000000000100000000000000000000000000000000000000000000000000038d7ea4c680000000000000000000000000000000000000000000000000000013336c3a2b497b00000000000000000000000000000000000000000000000000000000000000a00000000000000000000000000000000000000000000000000000000000000000000000000000000000000000000000000000000000000000000000000000002bb4fbf271143f4fbf7b91a5ded31805e42b2208d6000bb81f9840a85d5af5bf1d1762f925bdaddc4201f984000000000000000000000000000000000000000000c080a00932ef396779c21a14bde519f2ed903dec2a496154959cee0db6981bb03c178aa02b0815e845281a17919d1996ca9ccf783af38b11dac82183199317164a1c29d0',
    chainId: 5
 }
